:020000040000FA
:020000000A28CC
:10000800FE00030EF0000A08F100442C0B283C24E3
:10001800D1003D24D2003E24D3003F24D400402404
:10002800D5004124D6004224D7004324D8008301B8
:10003800D62883120313BB01BC01C72803308312DF
:100048000313B0000030B1000030F5000030F400B8
:100058000330F300E830F2003708F9003608F800FA
:100068003508F7003408F600892173088312031352
:10007800B3007208B2008123023083120313B00068
:100088000030B1000030A9000030A8000030A700FF
:100098000A30A6000030F5000030F4000030F3000C
:1000A8006430F2003708F9003608F8003508F70020
:1000B8003408F6008921750883120313AD0074080B
:1000C800AC007308AB007208AA002622831203133F
:1000D8002708B3002608B2008123013083120313D6
:1000E800B0000030B1000030A9000030A800003096
:1000F800A7000A30A6000030F5000030F4000030F8
:10010800F3000A30F2003708F9003608F80035081D
:10011800F7003408F6008921750883120313AD002F
:100128007408AC007308AB007208AA002622831278
:1001380003132708B3002608B20081230030831276
:100148000313B000B1000030A9000030A80000304F
:10015800A7000A30A6003708AD003608AC003508FD
:10016800AB003408AA002622831203132708B30021
:100178002608B2008123013083120313BB0703183A
:10018800BC0A0030BC073C08803ABA003908803AFB
:100198003A02031DD12838083B02031CD428D5286D
:1001A8002228080050242624B82333244930840008
:1001B800513083120313BD000408BE000830BF008D
:1001C8003D08840083130008C000BD0A3E0884006F
:1001D80040088000BE0ABF0BE42806151030F20064
:1001E8000030F3000F08BD00BE013D08F4003E08D2
:1001F800F5001A23730883120313C6007208C5009A
:100208001030F2000030F3000F08BD00BE013D08B9
:10021800F4003E08F5001A231030F2000030F30015
:10022800831203130F08BD00BE013D08F4003E0809
:10023800F5001A23730883120313C8007208C70055
:1002480045084702BD004608031C460A4802BE008E
:100258003D083E040319312932295F297230840090
:100268004930BD000408BE000830BF003D088400C6
:1002780083130008C000BD0A3E08840040088000BF
:10028800BE0ABF0B3A290824493084007230831211
:100298000313C1000408C2000830C30041088400E9
:1002A8000008C400C10A420884008313440880007F
:1002B800C20AC30B52294808C6004708C5004B08A4
:1002C800BD00BE013D08F2003E08F3006430F400B2
:1002D8000030F500E323831203134A087207BF00B6
:1002E8000030031801307307C0003F08B40040080D
:1002F800B5000030B51BFF30B600B7000130B800BC
:100308000030B9001D2010290A2883120313A10107
:10031800F51F8F2990299D29F209F309F409F50998
:10032800F20A0319F30A0319F40A0319F50AA101D9
:10033800A10AF91FA029A129B029F609F709F80986
:10034800F909F60A0319F70A0319F80A0319F90A49
:100358000130FA007A08A1060030A5000030A40098
:100368000030A3000030A2007508740473047204FE
:100378000319BF29C0290D2AA001A00AD0290130DC
:10038800FA000310F20DF30DF40DF50DFA0BC52963
:100398000130FA007A08A007F51FD329D429C32908
:1003A8000130FA000310A20DA30DA40DA50DFA0B40
:1003B800D62975087902031DEB2974087802031DF4
:1003C800EB2973087702031DEB2972087602031CD8
:1003D800EE29EF29FE297208F6027308031C730F31
:1003E800F7027408031C740FF8027508031C750FD4
:1003F800F902221401300310F50CF40CF30CF20C82
:10040800FF3E031DFF290130A002031D0C2A0D2AFF
:10041800D42921080319112A122A1D2AA209A3097D
:10042800A409A509A20A0319A30A0319A40A03190E
:10043800A50A2508F5002408F4002308F30022087B
:10044800F200080083120313AF01AD1F2C2A2D2AD6
:100458003A2AAA09AB09AC09AD09AA0A0319AB0AD9
:100468000319AC0A0319AD0AAF01AF0AA91F3D2A47
:100478003E2A492AA609A709A809A909A60A03190B
:10048800A70A0319A80A0319A90A2908280427048E
:1004980026040319502A512A942AAE01AE0A612A69
:1004A8000130FB000310A60DA70DA80DA90DFB0B2D
:1004B800562A0130FB007B08AE07A91F642A652A6B
:1004C800542A29082D02031D732A28082C02031D0B
:1004D800732A27082B02031D732A26082A02031CE5
:1004E800762A772A852A2608AA022708031C270FB6
:1004F800AB022808031C280FAC022908031C290F8B
:10050800AD0201300310A90CA80CA70CA60CFF3EE5
:10051800031D862A0130AE02031D932A942A652AF8
:100528002F080319982A992AA42AAA09AB09AC0901
:10053800AD09AA0A0319AB0A0319AC0A0319AD0AD3
:100548002D08A9002C08A8002B08A7002A08A60037
:100558000800F42A831203130511851305100513E7
:10056800192B831203130515851305100513192B71
:10057800831203130511851705100513192B831210
:1005880003130515851705100513192B831203137B
:100598000511851305140513192B8312031305156B
:1005A800851305140513192B8312031305118517D9
:1005B80005140513192B8312031305158517051444
:1005C8000513192B8312031305118513051005173D
:1005D800192B831203130515851305100517192BFD
:1005E8007308003A0319F92A192B7208003A0319FB
:1005F800ED2A013A0319AE2A033A0319E62A013A09
:100608000319C32A073A0319D82A013A0319D12A28
:10061800033A0319B52A013A0319CA2A0F3A0319EA
:10062800DF2A013A0319BC2A192B0800F801F31F25
:100638001E2B1F2B262BF209F309F20A0319F30AC2
:10064800F801F80AF51F292B2A2B332BF409F50991
:10065800F40A0319F50A0130F6007608F806F901DC
:10066800FA017208730403193A2B3B2B722BF7011A
:10067800F70A492B01300310F20DF30DFF3E031D5D
:100688003F2B0130F6007608F707F31F4C2B4D2B54
:100698003E2B01300310F90DFA0DFF3E031D4E2BC2
:1006A80073087502031D5A2B72087402031C5D2B14
:1006B8005E2B652B7208F4027308031CF503F50220
:1006C800791401300310F30CF20CFF3E031D662B66
:1006D8000130F702031D712B722B4D2B780803197B
:1006E800762B772B7C2BF909FA09F90A0319FA0AF0
:1006F8007A08F3007908F20008008312031333081C
:10070800F3003208F200AD22A22B061655248312FC
:10071800031306124B24B72B861655248312031392
:1007280086128E2B061455248312031306108E2B63
:10073800861455248312031386108E2B83120313F9
:100748003108003A0319A92BB72B3008003A0319CE
:10075800892B013A0319902B033A0319962B013A76
:1007680003199C2BB72B08008316031385018516E4
:100778000516851405119F131F139F121F149F142C
:100788001F159F15831203131F149F141F1583161B
:1007980003138601061786178312031305108514A1
:1007A800051185110512851205138513061086108B
:1007B8000611861106128612061386130800F60122
:1007C800F701721CE82BE92BEF2B7408F6070318C6
:1007D800F70A7508F70701300310F40DF50DFF3E11
:1007E800031DF02B01300310F30CF20CFF3E031D28
:1007F800F72B72087304031D022C032CE52B7708D2
:10080800F3007608F20008003B307206031D0D2C39
:100818000E2C212CF2013B307306031D142C152CD1
:100828001C2CF3011730FA007A08F400F401252C87
:100838000130FA007A08F307252C0130FA007A080B
:10084800F207080031308316031392000430831234
:10085800031392002A3095001C3097000800831279
:100868000313901610169015901410151014080004
:100878000034323416340034003400340034003488
:1008880071088A00700E8300FE0E7E0E0900033088
:10089800F200F20B4D2C0800831603130E088E1578
:0408A800080008003C
:02400E0058FF59
:00000001FF
